{
	"contracts/ShoppingMall.sol": {
		"ShoppingMall": {
			"abi": [
				{
					"inputs": [],
					"name": "amount",
					"outputs": [
						{
							"internalType": "uint256",
							"name": "",
							"type": "uint256"
						}
					],
					"stateMutability": "view",
					"type": "function"
				},
				{
					"inputs": [],
					"name": "buyer",
					"outputs": [
						{
							"internalType": "address",
							"name": "",
							"type": "address"
						}
					],
					"stateMutability": "view",
					"type": "function"
				},
				{
					"inputs": [],
					"name": "confirmPurchase",
					"outputs": [],
					"stateMutability": "payable",
					"type": "function"
				},
				{
					"inputs": [],
					"name": "seller",
					"outputs": [
						{
							"internalType": "address payable",
							"name": "",
							"type": "address"
						}
					],
					"stateMutability": "view",
					"type": "function"
				},
				{
					"inputs": [
						{
							"internalType": "address",
							"name": "_buyer",
							"type": "address"
						},
						{
							"internalType": "uint256",
							"name": "_amount",
							"type": "uint256"
						},
						{
							"internalType": "address payable",
							"name": "_seller",
							"type": "address"
						}
					],
					"name": "setSellerDetails",
					"outputs": [],
					"stateMutability": "nonpayable",
					"type": "function"
				}
			],
			"devdoc": {
				"kind": "dev",
				"methods": {},
				"version": 1
			},
			"evm": {
				"assembly": "    /* \"contracts/ShoppingMall.sol\":60:602  contract ShoppingMall {\r... */\n  mstore(0x40, 0x80)\n  callvalue\n  dup1\n  iszero\n  tag_1\n  jumpi\n  0x00\n  dup1\n  revert\ntag_1:\n  pop\n  dataSize(sub_0)\n  dup1\n  dataOffset(sub_0)\n  0x00\n  codecopy\n  0x00\n  return\nstop\n\nsub_0: assembly {\n        /* \"contracts/ShoppingMall.sol\":60:602  contract ShoppingMall {\r... */\n      mstore(0x40, 0x80)\n      jumpi(tag_1, lt(calldatasize, 0x04))\n      shr(0xe0, calldataload(0x00))\n      dup1\n      0x08551a53\n      eq\n      tag_2\n      jumpi\n      dup1\n      0x7150d8ae\n      eq\n      tag_3\n      jumpi\n      dup1\n      0x898c3780\n      eq\n      tag_4\n      jumpi\n      dup1\n      0xaa8c217c\n      eq\n      tag_5\n      jumpi\n      dup1\n      0xd6960697\n      eq\n      tag_6\n      jumpi\n    tag_1:\n      0x00\n      dup1\n      revert\n        /* \"contracts/ShoppingMall.sol\":141:170  address payable public seller */\n    tag_2:\n      callvalue\n      dup1\n      iszero\n      tag_7\n      jumpi\n      0x00\n      dup1\n      revert\n    tag_7:\n      pop\n      tag_8\n      tag_9\n      jump\t// in\n    tag_8:\n      mload(0x40)\n      tag_10\n      swap2\n      swap1\n      tag_11\n      jump\t// in\n    tag_10:\n      mload(0x40)\n      dup1\n      swap2\n      sub\n      swap1\n      return\n        /* \"contracts/ShoppingMall.sol\":89:109  address public buyer */\n    tag_3:\n      callvalue\n      dup1\n      iszero\n      tag_12\n      jumpi\n      0x00\n      dup1\n      revert\n    tag_12:\n      pop\n      tag_13\n      tag_14\n      jump\t// in\n    tag_13:\n      mload(0x40)\n      tag_15\n      swap2\n      swap1\n      tag_16\n      jump\t// in\n    tag_15:\n      mload(0x40)\n      dup1\n      swap2\n      sub\n      swap1\n      return\n        /* \"contracts/ShoppingMall.sol\":179:354  function setSellerDetails(address _buyer, uint _amount, address payable _seller) public {\r... */\n    tag_4:\n      callvalue\n      dup1\n      iszero\n      tag_17\n      jumpi\n      0x00\n      dup1\n      revert\n    tag_17:\n      pop\n      tag_18\n      0x04\n      dup1\n      calldatasize\n      sub\n      dup2\n      add\n      swap1\n      tag_19\n      swap2\n      swap1\n      tag_20\n      jump\t// in\n    tag_19:\n      tag_21\n      jump\t// in\n    tag_18:\n      stop\n        /* \"contracts/ShoppingMall.sol\":116:134  uint public amount */\n    tag_5:\n      callvalue\n      dup1\n      iszero\n      tag_22\n      jumpi\n      0x00\n      dup1\n      revert\n    tag_22:\n      pop\n      tag_23\n      tag_24\n      jump\t// in\n    tag_23:\n      mload(0x40)\n      tag_25\n      swap2\n      swap1\n      tag_26\n      jump\t// in\n    tag_25:\n      mload(0x40)\n      dup1\n      swap2\n      sub\n      swap1\n      return\n        /* \"contracts/ShoppingMall.sol\":362:599  function confirmPurchase() external payable {\r... */\n    tag_6:\n      tag_27\n      tag_28\n      jump\t// in\n    tag_27:\n      stop\n        /* \"contracts/ShoppingMall.sol\":141:170  address payable public seller */\n    tag_9:\n      0x02\n      0x00\n      swap1\n      sload\n      swap1\n      0x0100\n      exp\n      swap1\n      div\n      0xffffffffffffffffffffffffffffffffffffffff\n      and\n      dup2\n      jump\t// out\n        /* \"contracts/ShoppingMall.sol\":89:109  address public buyer */\n    tag_14:\n      0x00\n      dup1\n      sload\n      swap1\n      0x0100\n      exp\n      swap1\n      div\n      0xffffffffffffffffffffffffffffffffffffffff\n      and\n      dup2\n      jump\t// out\n        /* \"contracts/ShoppingMall.sol\":179:354  function setSellerDetails(address _buyer, uint _amount, address payable _seller) public {\r... */\n    tag_21:\n        /* \"contracts/ShoppingMall.sol\":286:292  _buyer */\n      dup3\n        /* \"contracts/ShoppingMall.sol\":278:283  buyer */\n      0x00\n      dup1\n        /* \"contracts/ShoppingMall.sol\":278:292  buyer = _buyer */\n      0x0100\n      exp\n      dup2\n      sload\n      dup2\n      0xffffffffffffffffffffffffffffffffffffffff\n      mul\n      not\n      and\n      swap1\n      dup4\n      0xffffffffffffffffffffffffffffffffffffffff\n      and\n      mul\n      or\n      swap1\n      sstore\n      pop\n        /* \"contracts/ShoppingMall.sol\":312:319  _amount */\n      dup2\n        /* \"contracts/ShoppingMall.sol\":303:309  amount */\n      0x01\n        /* \"contracts/ShoppingMall.sol\":303:319  amount = _amount */\n      dup2\n      swap1\n      sstore\n      pop\n        /* \"contracts/ShoppingMall.sol\":339:346  _seller */\n      dup1\n        /* \"contracts/ShoppingMall.sol\":330:336  seller */\n      0x02\n      0x00\n        /* \"contracts/ShoppingMall.sol\":330:346  seller = _seller */\n      0x0100\n      exp\n      dup2\n      sload\n      dup2\n      0xffffffffffffffffffffffffffffffffffffffff\n      mul\n      not\n      and\n      swap1\n      dup4\n      0xffffffffffffffffffffffffffffffffffffffff\n      and\n      mul\n      or\n      swap1\n      sstore\n      pop\n        /* \"contracts/ShoppingMall.sol\":179:354  function setSellerDetails(address _buyer, uint _amount, address payable _seller) public {\r... */\n      pop\n      pop\n      pop\n      jump\t// out\n        /* \"contracts/ShoppingMall.sol\":116:134  uint public amount */\n    tag_24:\n      sload(0x01)\n      dup2\n      jump\t// out\n        /* \"contracts/ShoppingMall.sol\":362:599  function confirmPurchase() external payable {\r... */\n    tag_28:\n        /* \"contracts/ShoppingMall.sol\":439:444  buyer */\n      0x00\n      dup1\n      sload\n      swap1\n      0x0100\n      exp\n      swap1\n      div\n      0xffffffffffffffffffffffffffffffffffffffff\n      and\n        /* \"contracts/ShoppingMall.sol\":425:444  msg.sender == buyer */\n      0xffffffffffffffffffffffffffffffffffffffff\n      and\n        /* \"contracts/ShoppingMall.sol\":425:435  msg.sender */\n      caller\n        /* \"contracts/ShoppingMall.sol\":425:444  msg.sender == buyer */\n      0xffffffffffffffffffffffffffffffffffffffff\n      and\n      eq\n        /* \"contracts/ShoppingMall.sol\":417:488  require(msg.sender == buyer, \"Only the buyer can confirm the purchase\") */\n      tag_31\n      jumpi\n      mload(0x40)\n      0x08c379a000000000000000000000000000000000000000000000000000000000\n      dup2\n      mstore\n      0x04\n      add\n      tag_32\n      swap1\n      tag_33\n      jump\t// in\n    tag_32:\n      mload(0x40)\n      dup1\n      swap2\n      sub\n      swap1\n      revert\n    tag_31:\n        /* \"contracts/ShoppingMall.sol\":520:526  amount */\n      sload(0x01)\n        /* \"contracts/ShoppingMall.sol\":507:516  msg.value */\n      callvalue\n        /* \"contracts/ShoppingMall.sol\":507:526  msg.value == amount */\n      eq\n        /* \"contracts/ShoppingMall.sol\":499:552  require(msg.value == amount, \"Incorrect amount sent\") */\n      tag_34\n      jumpi\n      mload(0x40)\n      0x08c379a000000000000000000000000000000000000000000000000000000000\n      dup2\n      mstore\n      0x04\n      add\n      tag_35\n      swap1\n      tag_36\n      jump\t// in\n    tag_35:\n      mload(0x40)\n      dup1\n      swap2\n      sub\n      swap1\n      revert\n    tag_34:\n        /* \"contracts/ShoppingMall.sol\":565:571  seller */\n      0x02\n      0x00\n      swap1\n      sload\n      swap1\n      0x0100\n      exp\n      swap1\n      div\n      0xffffffffffffffffffffffffffffffffffffffff\n      and\n        /* \"contracts/ShoppingMall.sol\":565:580  seller.transfer */\n      0xffffffffffffffffffffffffffffffffffffffff\n      and\n        /* \"contracts/ShoppingMall.sol\":565:591  seller.transfer(msg.value) */\n      0x08fc\n        /* \"contracts/ShoppingMall.sol\":581:590  msg.value */\n      callvalue\n        /* \"contracts/ShoppingMall.sol\":565:591  seller.transfer(msg.value) */\n      swap1\n      dup2\n      iszero\n      mul\n      swap1\n      mload(0x40)\n      0x00\n      mload(0x40)\n      dup1\n      dup4\n      sub\n      dup2\n      dup6\n      dup9\n      dup9\n      call\n      swap4\n      pop\n      pop\n      pop\n      pop\n      iszero\n      dup1\n      iszero\n      tag_38\n      jumpi\n      returndatasize\n      0x00\n      dup1\n      returndatacopy\n      revert(0x00, returndatasize)\n    tag_38:\n      pop\n        /* \"contracts/ShoppingMall.sol\":362:599  function confirmPurchase() external payable {\r... */\n      jump\t// out\n        /* \"#utility.yul\":7:146   */\n    tag_40:\n      0x00\n        /* \"#utility.yul\":91:97   */\n      dup2\n        /* \"#utility.yul\":78:98   */\n      calldataload\n        /* \"#utility.yul\":69:98   */\n      swap1\n      pop\n        /* \"#utility.yul\":107:140   */\n      tag_42\n        /* \"#utility.yul\":134:139   */\n      dup2\n        /* \"#utility.yul\":107:140   */\n      tag_43\n      jump\t// in\n    tag_42:\n        /* \"#utility.yul\":59:146   */\n      swap3\n      swap2\n      pop\n      pop\n      jump\t// out\n        /* \"#utility.yul\":152:307   */\n    tag_44:\n      0x00\n        /* \"#utility.yul\":244:250   */\n      dup2\n        /* \"#utility.yul\":231:251   */\n      calldataload\n        /* \"#utility.yul\":222:251   */\n      swap1\n      pop\n        /* \"#utility.yul\":260:301   */\n      tag_46\n        /* \"#utility.yul\":295:300   */\n      dup2\n        /* \"#utility.yul\":260:301   */\n      tag_47\n      jump\t// in\n    tag_46:\n        /* \"#utility.yul\":212:307   */\n      swap3\n      swap2\n      pop\n      pop\n      jump\t// out\n        /* \"#utility.yul\":313:452   */\n    tag_48:\n      0x00\n        /* \"#utility.yul\":397:403   */\n      dup2\n        /* \"#utility.yul\":384:404   */\n      calldataload\n        /* \"#utility.yul\":375:404   */\n      swap1\n      pop\n        /* \"#utility.yul\":413:446   */\n      tag_50\n        /* \"#utility.yul\":440:445   */\n      dup2\n        /* \"#utility.yul\":413:446   */\n      tag_51\n      jump\t// in\n    tag_50:\n        /* \"#utility.yul\":365:452   */\n      swap3\n      swap2\n      pop\n      pop\n      jump\t// out\n        /* \"#utility.yul\":458:1026   */\n    tag_20:\n      0x00\n      dup1\n      0x00\n        /* \"#utility.yul\":608:610   */\n      0x60\n        /* \"#utility.yul\":596:605   */\n      dup5\n        /* \"#utility.yul\":587:594   */\n      dup7\n        /* \"#utility.yul\":583:606   */\n      sub\n        /* \"#utility.yul\":579:611   */\n      slt\n        /* \"#utility.yul\":576:578   */\n      iszero\n      tag_53\n      jumpi\n        /* \"#utility.yul\":624:625   */\n      0x00\n        /* \"#utility.yul\":621:622   */\n      dup1\n        /* \"#utility.yul\":614:626   */\n      revert\n        /* \"#utility.yul\":576:578   */\n    tag_53:\n        /* \"#utility.yul\":667:668   */\n      0x00\n        /* \"#utility.yul\":692:745   */\n      tag_54\n        /* \"#utility.yul\":737:744   */\n      dup7\n        /* \"#utility.yul\":728:734   */\n      dup3\n        /* \"#utility.yul\":717:726   */\n      dup8\n        /* \"#utility.yul\":713:735   */\n      add\n        /* \"#utility.yul\":692:745   */\n      tag_40\n      jump\t// in\n    tag_54:\n        /* \"#utility.yul\":682:745   */\n      swap4\n      pop\n        /* \"#utility.yul\":638:755   */\n      pop\n        /* \"#utility.yul\":794:796   */\n      0x20\n        /* \"#utility.yul\":820:873   */\n      tag_55\n        /* \"#utility.yul\":865:872   */\n      dup7\n        /* \"#utility.yul\":856:862   */\n      dup3\n        /* \"#utility.yul\":845:854   */\n      dup8\n        /* \"#utility.yul\":841:863   */\n      add\n        /* \"#utility.yul\":820:873   */\n      tag_48\n      jump\t// in\n    tag_55:\n        /* \"#utility.yul\":810:873   */\n      swap3\n      pop\n        /* \"#utility.yul\":765:883   */\n      pop\n        /* \"#utility.yul\":922:924   */\n      0x40\n        /* \"#utility.yul\":948:1009   */\n      tag_56\n        /* \"#utility.yul\":1001:1008   */\n      dup7\n        /* \"#utility.yul\":992:998   */\n      dup3\n        /* \"#utility.yul\":981:990   */\n      dup8\n        /* \"#utility.yul\":977:999   */\n      add\n        /* \"#utility.yul\":948:1009   */\n      tag_44\n      jump\t// in\n    tag_56:\n        /* \"#utility.yul\":938:1009   */\n      swap2\n      pop\n        /* \"#utility.yul\":893:1019   */\n      pop\n        /* \"#utility.yul\":566:1026   */\n      swap3\n      pop\n      swap3\n      pop\n      swap3\n      jump\t// out\n        /* \"#utility.yul\":1032:1174   */\n    tag_57:\n        /* \"#utility.yul\":1135:1167   */\n      tag_59\n        /* \"#utility.yul\":1161:1166   */\n      dup2\n        /* \"#utility.yul\":1135:1167   */\n      tag_60\n      jump\t// in\n    tag_59:\n        /* \"#utility.yul\":1130:1133   */\n      dup3\n        /* \"#utility.yul\":1123:1168   */\n      mstore\n        /* \"#utility.yul\":1113:1174   */\n      pop\n      pop\n      jump\t// out\n        /* \"#utility.yul\":1180:1298   */\n    tag_61:\n        /* \"#utility.yul\":1267:1291   */\n      tag_63\n        /* \"#utility.yul\":1285:1290   */\n      dup2\n        /* \"#utility.yul\":1267:1291   */\n      tag_64\n      jump\t// in\n    tag_63:\n        /* \"#utility.yul\":1262:1265   */\n      dup3\n        /* \"#utility.yul\":1255:1292   */\n      mstore\n        /* \"#utility.yul\":1245:1298   */\n      pop\n      pop\n      jump\t// out\n        /* \"#utility.yul\":1304:1623   */\n    tag_65:\n      0x00\n        /* \"#utility.yul\":1467:1534   */\n      tag_67\n        /* \"#utility.yul\":1531:1533   */\n      0x15\n        /* \"#utility.yul\":1526:1529   */\n      dup4\n        /* \"#utility.yul\":1467:1534   */\n      tag_68\n      jump\t// in\n    tag_67:\n        /* \"#utility.yul\":1460:1534   */\n      swap2\n      pop\n        /* \"#utility.yul\":1564:1587   */\n      0x496e636f727265637420616d6f756e742073656e740000000000000000000000\n        /* \"#utility.yul\":1560:1561   */\n      0x00\n        /* \"#utility.yul\":1555:1558   */\n      dup4\n        /* \"#utility.yul\":1551:1562   */\n      add\n        /* \"#utility.yul\":1544:1588   */\n      mstore\n        /* \"#utility.yul\":1614:1616   */\n      0x20\n        /* \"#utility.yul\":1609:1612   */\n      dup3\n        /* \"#utility.yul\":1605:1617   */\n      add\n        /* \"#utility.yul\":1598:1617   */\n      swap1\n      pop\n        /* \"#utility.yul\":1450:1623   */\n      swap2\n      swap1\n      pop\n      jump\t// out\n        /* \"#utility.yul\":1629:2000   */\n    tag_69:\n      0x00\n        /* \"#utility.yul\":1792:1859   */\n      tag_71\n        /* \"#utility.yul\":1856:1858   */\n      0x27\n        /* \"#utility.yul\":1851:1854   */\n      dup4\n        /* \"#utility.yul\":1792:1859   */\n      tag_68\n      jump\t// in\n    tag_71:\n        /* \"#utility.yul\":1785:1859   */\n      swap2\n      pop\n        /* \"#utility.yul\":1889:1923   */\n      0x4f6e6c79207468652062757965722063616e20636f6e6669726d207468652070\n        /* \"#utility.yul\":1885:1886   */\n      0x00\n        /* \"#utility.yul\":1880:1883   */\n      dup4\n        /* \"#utility.yul\":1876:1887   */\n      add\n        /* \"#utility.yul\":1869:1924   */\n      mstore\n        /* \"#utility.yul\":1955:1964   */\n      0x7572636861736500000000000000000000000000000000000000000000000000\n        /* \"#utility.yul\":1950:1952   */\n      0x20\n        /* \"#utility.yul\":1945:1948   */\n      dup4\n        /* \"#utility.yul\":1941:1953   */\n      add\n        /* \"#utility.yul\":1934:1965   */\n      mstore\n        /* \"#utility.yul\":1991:1993   */\n      0x40\n        /* \"#utility.yul\":1986:1989   */\n      dup3\n        /* \"#utility.yul\":1982:1994   */\n      add\n        /* \"#utility.yul\":1975:1994   */\n      swap1\n      pop\n        /* \"#utility.yul\":1775:2000   */\n      swap2\n      swap1\n      pop\n      jump\t// out\n        /* \"#utility.yul\":2006:2124   */\n    tag_72:\n        /* \"#utility.yul\":2093:2117   */\n      tag_74\n        /* \"#utility.yul\":2111:2116   */\n      dup2\n        /* \"#utility.yul\":2093:2117   */\n      tag_75\n      jump\t// in\n    tag_74:\n        /* \"#utility.yul\":2088:2091   */\n      dup3\n        /* \"#utility.yul\":2081:2118   */\n      mstore\n        /* \"#utility.yul\":2071:2124   */\n      pop\n      pop\n      jump\t// out\n        /* \"#utility.yul\":2130:2352   */\n    tag_16:\n      0x00\n        /* \"#utility.yul\":2261:2263   */\n      0x20\n        /* \"#utility.yul\":2250:2259   */\n      dup3\n        /* \"#utility.yul\":2246:2264   */\n      add\n        /* \"#utility.yul\":2238:2264   */\n      swap1\n      pop\n        /* \"#utility.yul\":2274:2345   */\n      tag_77\n        /* \"#utility.yul\":2342:2343   */\n      0x00\n        /* \"#utility.yul\":2331:2340   */\n      dup4\n        /* \"#utility.yul\":2327:2344   */\n      add\n        /* \"#utility.yul\":2318:2324   */\n      dup5\n        /* \"#utility.yul\":2274:2345   */\n      tag_61\n      jump\t// in\n    tag_77:\n        /* \"#utility.yul\":2228:2352   */\n      swap3\n      swap2\n      pop\n      pop\n      jump\t// out\n        /* \"#utility.yul\":2358:2612   */\n    tag_11:\n      0x00\n        /* \"#utility.yul\":2505:2507   */\n      0x20\n        /* \"#utility.yul\":2494:2503   */\n      dup3\n        /* \"#utility.yul\":2490:2508   */\n      add\n        /* \"#utility.yul\":2482:2508   */\n      swap1\n      pop\n        /* \"#utility.yul\":2518:2605   */\n      tag_79\n        /* \"#utility.yul\":2602:2603   */\n      0x00\n        /* \"#utility.yul\":2591:2600   */\n      dup4\n        /* \"#utility.yul\":2587:2604   */\n      add\n        /* \"#utility.yul\":2578:2584   */\n      dup5\n        /* \"#utility.yul\":2518:2605   */\n      tag_57\n      jump\t// in\n    tag_79:\n        /* \"#utility.yul\":2472:2612   */\n      swap3\n      swap2\n      pop\n      pop\n      jump\t// out\n        /* \"#utility.yul\":2618:3037   */\n    tag_36:\n      0x00\n        /* \"#utility.yul\":2822:2824   */\n      0x20\n        /* \"#utility.yul\":2811:2820   */\n      dup3\n        /* \"#utility.yul\":2807:2825   */\n      add\n        /* \"#utility.yul\":2799:2825   */\n      swap1\n      pop\n        /* \"#utility.yul\":2871:2880   */\n      dup2\n        /* \"#utility.yul\":2865:2869   */\n      dup2\n        /* \"#utility.yul\":2861:2881   */\n      sub\n        /* \"#utility.yul\":2857:2858   */\n      0x00\n        /* \"#utility.yul\":2846:2855   */\n      dup4\n        /* \"#utility.yul\":2842:2859   */\n      add\n        /* \"#utility.yul\":2835:2882   */\n      mstore\n        /* \"#utility.yul\":2899:3030   */\n      tag_81\n        /* \"#utility.yul\":3025:3029   */\n      dup2\n        /* \"#utility.yul\":2899:3030   */\n      tag_65\n      jump\t// in\n    tag_81:\n        /* \"#utility.yul\":2891:3030   */\n      swap1\n      pop\n        /* \"#utility.yul\":2789:3037   */\n      swap2\n      swap1\n      pop\n      jump\t// out\n        /* \"#utility.yul\":3043:3462   */\n    tag_33:\n      0x00\n        /* \"#utility.yul\":3247:3249   */\n      0x20\n        /* \"#utility.yul\":3236:3245   */\n      dup3\n        /* \"#utility.yul\":3232:3250   */\n      add\n        /* \"#utility.yul\":3224:3250   */\n      swap1\n      pop\n        /* \"#utility.yul\":3296:3305   */\n      dup2\n        /* \"#utility.yul\":3290:3294   */\n      dup2\n        /* \"#utility.yul\":3286:3306   */\n      sub\n        /* \"#utility.yul\":3282:3283   */\n      0x00\n        /* \"#utility.yul\":3271:3280   */\n      dup4\n        /* \"#utility.yul\":3267:3284   */\n      add\n        /* \"#utility.yul\":3260:3307   */\n      mstore\n        /* \"#utility.yul\":3324:3455   */\n      tag_83\n        /* \"#utility.yul\":3450:3454   */\n      dup2\n        /* \"#utility.yul\":3324:3455   */\n      tag_69\n      jump\t// in\n    tag_83:\n        /* \"#utility.yul\":3316:3455   */\n      swap1\n      pop\n        /* \"#utility.yul\":3214:3462   */\n      swap2\n      swap1\n      pop\n      jump\t// out\n        /* \"#utility.yul\":3468:3690   */\n    tag_26:\n      0x00\n        /* \"#utility.yul\":3599:3601   */\n      0x20\n        /* \"#utility.yul\":3588:3597   */\n      dup3\n        /* \"#utility.yul\":3584:3602   */\n      add\n        /* \"#utility.yul\":3576:3602   */\n      swap1\n      pop\n        /* \"#utility.yul\":3612:3683   */\n      tag_85\n        /* \"#utility.yul\":3680:3681   */\n      0x00\n        /* \"#utility.yul\":3669:3678   */\n      dup4\n        /* \"#utility.yul\":3665:3682   */\n      add\n        /* \"#utility.yul\":3656:3662   */\n      dup5\n        /* \"#utility.yul\":3612:3683   */\n      tag_72\n      jump\t// in\n    tag_85:\n        /* \"#utility.yul\":3566:3690   */\n      swap3\n      swap2\n      pop\n      pop\n      jump\t// out\n        /* \"#utility.yul\":3696:3865   */\n    tag_68:\n      0x00\n        /* \"#utility.yul\":3814:3820   */\n      dup3\n        /* \"#utility.yul\":3809:3812   */\n      dup3\n        /* \"#utility.yul\":3802:3821   */\n      mstore\n        /* \"#utility.yul\":3854:3858   */\n      0x20\n        /* \"#utility.yul\":3849:3852   */\n      dup3\n        /* \"#utility.yul\":3845:3859   */\n      add\n        /* \"#utility.yul\":3830:3859   */\n      swap1\n      pop\n        /* \"#utility.yul\":3792:3865   */\n      swap3\n      swap2\n      pop\n      pop\n      jump\t// out\n        /* \"#utility.yul\":3871:3967   */\n    tag_64:\n      0x00\n        /* \"#utility.yul\":3937:3961   */\n      tag_88\n        /* \"#utility.yul\":3955:3960   */\n      dup3\n        /* \"#utility.yul\":3937:3961   */\n      tag_89\n      jump\t// in\n    tag_88:\n        /* \"#utility.yul\":3926:3961   */\n      swap1\n      pop\n        /* \"#utility.yul\":3916:3967   */\n      swap2\n      swap1\n      pop\n      jump\t// out\n        /* \"#utility.yul\":3973:4077   */\n    tag_60:\n      0x00\n        /* \"#utility.yul\":4047:4071   */\n      tag_91\n        /* \"#utility.yul\":4065:4070   */\n      dup3\n        /* \"#utility.yul\":4047:4071   */\n      tag_89\n      jump\t// in\n    tag_91:\n        /* \"#utility.yul\":4036:4071   */\n      swap1\n      pop\n        /* \"#utility.yul\":4026:4077   */\n      swap2\n      swap1\n      pop\n      jump\t// out\n        /* \"#utility.yul\":4083:4209   */\n    tag_89:\n      0x00\n        /* \"#utility.yul\":4160:4202   */\n      0xffffffffffffffffffffffffffffffffffffffff\n        /* \"#utility.yul\":4153:4158   */\n      dup3\n        /* \"#utility.yul\":4149:4203   */\n      and\n        /* \"#utility.yul\":4138:4203   */\n      swap1\n      pop\n        /* \"#utility.yul\":4128:4209   */\n      swap2\n      swap1\n      pop\n      jump\t// out\n        /* \"#utility.yul\":4215:4292   */\n    tag_75:\n      0x00\n        /* \"#utility.yul\":4281:4286   */\n      dup2\n        /* \"#utility.yul\":4270:4286   */\n      swap1\n      pop\n        /* \"#utility.yul\":4260:4292   */\n      swap2\n      swap1\n      pop\n      jump\t// out\n        /* \"#utility.yul\":4298:4420   */\n    tag_43:\n        /* \"#utility.yul\":4371:4395   */\n      tag_95\n        /* \"#utility.yul\":4389:4394   */\n      dup2\n        /* \"#utility.yul\":4371:4395   */\n      tag_64\n      jump\t// in\n    tag_95:\n        /* \"#utility.yul\":4364:4369   */\n      dup2\n        /* \"#utility.yul\":4361:4396   */\n      eq\n        /* \"#utility.yul\":4351:4353   */\n      tag_96\n      jumpi\n        /* \"#utility.yul\":4410:4411   */\n      0x00\n        /* \"#utility.yul\":4407:4408   */\n      dup1\n        /* \"#utility.yul\":4400:4412   */\n      revert\n        /* \"#utility.yul\":4351:4353   */\n    tag_96:\n        /* \"#utility.yul\":4341:4420   */\n      pop\n      jump\t// out\n        /* \"#utility.yul\":4426:4564   */\n    tag_47:\n        /* \"#utility.yul\":4507:4539   */\n      tag_98\n        /* \"#utility.yul\":4533:4538   */\n      dup2\n        /* \"#utility.yul\":4507:4539   */\n      tag_60\n      jump\t// in\n    tag_98:\n        /* \"#utility.yul\":4500:4505   */\n      dup2\n        /* \"#utility.yul\":4497:4540   */\n      eq\n        /* \"#utility.yul\":4487:4489   */\n      tag_99\n      jumpi\n        /* \"#utility.yul\":4554:4555   */\n      0x00\n        /* \"#utility.yul\":4551:4552   */\n      dup1\n        /* \"#utility.yul\":4544:4556   */\n      revert\n        /* \"#utility.yul\":4487:4489   */\n    tag_99:\n        /* \"#utility.yul\":4477:4564   */\n      pop\n      jump\t// out\n        /* \"#utility.yul\":4570:4692   */\n    tag_51:\n        /* \"#utility.yul\":4643:4667   */\n      tag_101\n        /* \"#utility.yul\":4661:4666   */\n      dup2\n        /* \"#utility.yul\":4643:4667   */\n      tag_75\n      jump\t// in\n    tag_101:\n        /* \"#utility.yul\":4636:4641   */\n      dup2\n        /* \"#utility.yul\":4633:4668   */\n      eq\n        /* \"#utility.yul\":4623:4625   */\n      tag_102\n      jumpi\n        /* \"#utility.yul\":4682:4683   */\n      0x00\n        /* \"#utility.yul\":4679:4680   */\n      dup1\n        /* \"#utility.yul\":4672:4684   */\n      revert\n        /* \"#utility.yul\":4623:4625   */\n    tag_102:\n        /* \"#utility.yul\":4613:4692   */\n      pop\n      jump\t// out\n\n    auxdata: 0xa2646970667358221220a890c96cdcf5538de16e9716b85ac5518e5b3027ed6ad2a4d1ad156e79aa1b1d64736f6c63430008000033\n}\n",
				"bytecode": {
					"linkReferences": {},
					"object": "608060405234801561001057600080fd5b506105e9806100206000396000f3fe60806040526004361061004a5760003560e01c806308551a531461004f5780637150d8ae1461007a578063898c3780146100a5578063aa8c217c146100ce578063d6960697146100f9575b600080fd5b34801561005b57600080fd5b50610064610103565b6040516100719190610499565b60405180910390f35b34801561008657600080fd5b5061008f610129565b60405161009c919061047e565b60405180910390f35b3480156100b157600080fd5b506100cc60048036038101906100c7919061035c565b61014d565b005b3480156100da57600080fd5b506100e36101da565b6040516100f091906104f4565b60405180910390f35b6101016101e0565b005b600260009054906101000a900473ffffffffffffffffffffffffffffffffffffffff1681565b60008054906101000a900473ffffffffffffffffffffffffffffffffffffffff1681565b826000806101000a81548173ffffffffffffffffffffffffffffffffffffffff021916908373ffffffffffffffffffffffffffffffffffffffff1602179055508160018190555080600260006101000a81548173ffffffffffffffffffffffffffffffffffffffff021916908373ffffffffffffffffffffffffffffffffffffffff160217905550505050565b60015481565b60008054906101000a900473ffffffffffffffffffffffffffffffffffffffff1673ffffffffffffffffffffffffffffffffffffffff163373ffffffffffffffffffffffffffffffffffffffff161461026e576040517f08c379a0000000000000000000000000000000000000000000000000000000008152600401610265906104d4565b60405180910390fd5b60015434146102b2576040517f08c379a00000000000000000000000000000000000000000000000000000000081526004016102a9906104b4565b60405180910390fd5b600260009054906101000a900473ffffffffffffffffffffffffffffffffffffffff1673ffffffffffffffffffffffffffffffffffffffff166108fc349081150290604051600060405180830381858888f1935050505015801561031a573d6000803e3d6000fd5b50565b60008135905061032c8161056e565b92915050565b60008135905061034181610585565b92915050565b6000813590506103568161059c565b92915050565b60008060006060848603121561037157600080fd5b600061037f8682870161031d565b935050602061039086828701610347565b92505060406103a186828701610332565b9150509250925092565b6103b481610532565b82525050565b6103c381610520565b82525050565b60006103d660158361050f565b91507f496e636f727265637420616d6f756e742073656e7400000000000000000000006000830152602082019050919050565b600061041660278361050f565b91507f4f6e6c79207468652062757965722063616e20636f6e6669726d20746865207060008301527f75726368617365000000000000000000000000000000000000000000000000006020830152604082019050919050565b61047881610564565b82525050565b600060208201905061049360008301846103ba565b92915050565b60006020820190506104ae60008301846103ab565b92915050565b600060208201905081810360008301526104cd816103c9565b9050919050565b600060208201905081810360008301526104ed81610409565b9050919050565b6000602082019050610509600083018461046f565b92915050565b600082825260208201905092915050565b600061052b82610544565b9050919050565b600061053d82610544565b9050919050565b600073ffffffffffffffffffffffffffffffffffffffff82169050919050565b6000819050919050565b61057781610520565b811461058257600080fd5b50565b61058e81610532565b811461059957600080fd5b50565b6105a581610564565b81146105b057600080fd5b5056fea2646970667358221220a890c96cdcf5538de16e9716b85ac5518e5b3027ed6ad2a4d1ad156e79aa1b1d64736f6c63430008000033",
					"opcodes": "PUSH1 0x80 PUSH1 0x40 MSTORE CALLVALUE DUP1 ISZERO PUSH2 0x10 JUMPI PUSH1 0x0 DUP1 REVERT JUMPDEST POP PUSH2 0x5E9 DUP1 PUSH2 0x20 PUSH1 0x0 CODECOPY PUSH1 0x0 RETURN INVALID PUSH1 0x80 PUSH1 0x40 MSTORE PUSH1 0x4 CALLDATASIZE LT PUSH2 0x4A JUMPI PUSH1 0x0 CALLDATALOAD PUSH1 0xE0 SHR DUP1 PUSH4 0x8551A53 EQ PUSH2 0x4F JUMPI DUP1 PUSH4 0x7150D8AE EQ PUSH2 0x7A JUMPI DUP1 PUSH4 0x898C3780 EQ PUSH2 0xA5 JUMPI DUP1 PUSH4 0xAA8C217C EQ PUSH2 0xCE JUMPI DUP1 PUSH4 0xD6960697 EQ PUSH2 0xF9 JUMPI JUMPDEST PUSH1 0x0 DUP1 REVERT JUMPDEST CALLVALUE DUP1 ISZERO PUSH2 0x5B JUMPI PUSH1 0x0 DUP1 REVERT JUMPDEST POP PUSH2 0x64 PUSH2 0x103 JUMP JUMPDEST PUSH1 0x40 MLOAD PUSH2 0x71 SWAP2 SWAP1 PUSH2 0x499 JUMP JUMPDEST PUSH1 0x40 MLOAD DUP1 SWAP2 SUB SWAP1 RETURN JUMPDEST CALLVALUE DUP1 ISZERO PUSH2 0x86 JUMPI PUSH1 0x0 DUP1 REVERT JUMPDEST POP PUSH2 0x8F PUSH2 0x129 JUMP JUMPDEST PUSH1 0x40 MLOAD PUSH2 0x9C SWAP2 SWAP1 PUSH2 0x47E JUMP JUMPDEST PUSH1 0x40 MLOAD DUP1 SWAP2 SUB SWAP1 RETURN JUMPDEST CALLVALUE DUP1 ISZERO PUSH2 0xB1 JUMPI PUSH1 0x0 DUP1 REVERT JUMPDEST POP PUSH2 0xCC PUSH1 0x4 DUP1 CALLDATASIZE SUB DUP2 ADD SWAP1 PUSH2 0xC7 SWAP2 SWAP1 PUSH2 0x35C JUMP JUMPDEST PUSH2 0x14D JUMP JUMPDEST STOP JUMPDEST CALLVALUE DUP1 ISZERO PUSH2 0xDA JUMPI PUSH1 0x0 DUP1 REVERT JUMPDEST POP PUSH2 0xE3 PUSH2 0x1DA JUMP JUMPDEST PUSH1 0x40 MLOAD PUSH2 0xF0 SWAP2 SWAP1 PUSH2 0x4F4 JUMP JUMPDEST PUSH1 0x40 MLOAD DUP1 SWAP2 SUB SWAP1 RETURN JUMPDEST PUSH2 0x101 PUSH2 0x1E0 JUMP JUMPDEST STOP JUMPDEST PUSH1 0x2 PUSH1 0x0 SWAP1 SLOAD SWAP1 PUSH2 0x100 EXP SWAP1 DIV PUSH20 0xFFFFFFFFFFFFFFFFFFFFFFFFFFFFFFFFFFFFFFFF AND DUP2 JUMP JUMPDEST PUSH1 0x0 DUP1 SLOAD SWAP1 PUSH2 0x100 EXP SWAP1 DIV PUSH20 0xFFFFFFFFFFFFFFFFFFFFFFFFFFFFFFFFFFFFFFFF AND DUP2 JUMP JUMPDEST DUP3 PUSH1 0x0 DUP1 PUSH2 0x100 EXP DUP2 SLOAD DUP2 PUSH20 0xFFFFFFFFFFFFFFFFFFFFFFFFFFFFFFFFFFFFFFFF MUL NOT AND SWAP1 DUP4 PUSH20 0xFFFFFFFFFFFFFFFFFFFFFFFFFFFFFFFFFFFFFFFF AND MUL OR SWAP1 SSTORE POP DUP2 PUSH1 0x1 DUP2 SWAP1 SSTORE POP DUP1 PUSH1 0x2 PUSH1 0x0 PUSH2 0x100 EXP DUP2 SLOAD DUP2 PUSH20 0xFFFFFFFFFFFFFFFFFFFFFFFFFFFFFFFFFFFFFFFF MUL NOT AND SWAP1 DUP4 PUSH20 0xFFFFFFFFFFFFFFFFFFFFFFFFFFFFFFFFFFFFFFFF AND MUL OR SWAP1 SSTORE POP POP POP POP JUMP JUMPDEST PUSH1 0x1 SLOAD DUP2 JUMP JUMPDEST PUSH1 0x0 DUP1 SLOAD SWAP1 PUSH2 0x100 EXP SWAP1 DIV PUSH20 0xFFFFFFFFFFFFFFFFFFFFFFFFFFFFFFFFFFFFFFFF AND PUSH20 0xFFFFFFFFFFFFFFFFFFFFFFFFFFFFFFFFFFFFFFFF AND CALLER PUSH20 0xFFFFFFFFFFFFFFFFFFFFFFFFFFFFFFFFFFFFFFFF AND EQ PUSH2 0x26E JUMPI PUSH1 0x40 MLOAD PUSH32 0x8C379A000000000000000000000000000000000000000000000000000000000 DUP2 MSTORE PUSH1 0x4 ADD PUSH2 0x265 SWAP1 PUSH2 0x4D4 JUMP JUMPDEST PUSH1 0x40 MLOAD DUP1 SWAP2 SUB SWAP1 REVERT JUMPDEST PUSH1 0x1 SLOAD CALLVALUE EQ PUSH2 0x2B2 JUMPI PUSH1 0x40 MLOAD PUSH32 0x8C379A000000000000000000000000000000000000000000000000000000000 DUP2 MSTORE PUSH1 0x4 ADD PUSH2 0x2A9 SWAP1 PUSH2 0x4B4 JUMP JUMPDEST PUSH1 0x40 MLOAD DUP1 SWAP2 SUB SWAP1 REVERT JUMPDEST PUSH1 0x2 PUSH1 0x0 SWAP1 SLOAD SWAP1 PUSH2 0x100 EXP SWAP1 DIV PUSH20 0xFFFFFFFFFFFFFFFFFFFFFFFFFFFFFFFFFFFFFFFF AND PUSH20 0xFFFFFFFFFFFFFFFFFFFFFFFFFFFFFFFFFFFFFFFF AND PUSH2 0x8FC CALLVALUE SWAP1 DUP2 ISZERO MUL SWAP1 PUSH1 0x40 MLOAD PUSH1 0x0 PUSH1 0x40 MLOAD DUP1 DUP4 SUB DUP2 DUP6 DUP9 DUP9 CALL SWAP4 POP POP POP POP ISZERO DUP1 ISZERO PUSH2 0x31A JUMPI RETURNDATASIZE PUSH1 0x0 DUP1 RETURNDATACOPY RETURNDATASIZE PUSH1 0x0 REVERT JUMPDEST POP JUMP JUMPDEST PUSH1 0x0 DUP2 CALLDATALOAD SWAP1 POP PUSH2 0x32C DUP2 PUSH2 0x56E JUMP JUMPDEST SWAP3 SWAP2 POP POP JUMP JUMPDEST PUSH1 0x0 DUP2 CALLDATALOAD SWAP1 POP PUSH2 0x341 DUP2 PUSH2 0x585 JUMP JUMPDEST SWAP3 SWAP2 POP POP JUMP JUMPDEST PUSH1 0x0 DUP2 CALLDATALOAD SWAP1 POP PUSH2 0x356 DUP2 PUSH2 0x59C JUMP JUMPDEST SWAP3 SWAP2 POP POP JUMP JUMPDEST PUSH1 0x0 DUP1 PUSH1 0x0 PUSH1 0x60 DUP5 DUP7 SUB SLT ISZERO PUSH2 0x371 JUMPI PUSH1 0x0 DUP1 REVERT JUMPDEST PUSH1 0x0 PUSH2 0x37F DUP7 DUP3 DUP8 ADD PUSH2 0x31D JUMP JUMPDEST SWAP4 POP POP PUSH1 0x20 PUSH2 0x390 DUP7 DUP3 DUP8 ADD PUSH2 0x347 JUMP JUMPDEST SWAP3 POP POP PUSH1 0x40 PUSH2 0x3A1 DUP7 DUP3 DUP8 ADD PUSH2 0x332 JUMP JUMPDEST SWAP2 POP POP SWAP3 POP SWAP3 POP SWAP3 JUMP JUMPDEST PUSH2 0x3B4 DUP2 PUSH2 0x532 JUMP JUMPDEST DUP3 MSTORE POP POP JUMP JUMPDEST PUSH2 0x3C3 DUP2 PUSH2 0x520 JUMP JUMPDEST DUP3 MSTORE POP POP JUMP JUMPDEST PUSH1 0x0 PUSH2 0x3D6 PUSH1 0x15 DUP4 PUSH2 0x50F JUMP JUMPDEST SWAP2 POP PUSH32 0x496E636F727265637420616D6F756E742073656E740000000000000000000000 PUSH1 0x0 DUP4 ADD MSTORE PUSH1 0x20 DUP3 ADD SWAP1 POP SWAP2 SWAP1 POP JUMP JUMPDEST PUSH1 0x0 PUSH2 0x416 PUSH1 0x27 DUP4 PUSH2 0x50F JUMP JUMPDEST SWAP2 POP PUSH32 0x4F6E6C79207468652062757965722063616E20636F6E6669726D207468652070 PUSH1 0x0 DUP4 ADD MSTORE PUSH32 0x7572636861736500000000000000000000000000000000000000000000000000 PUSH1 0x20 DUP4 ADD MSTORE PUSH1 0x40 DUP3 ADD SWAP1 POP SWAP2 SWAP1 POP JUMP JUMPDEST PUSH2 0x478 DUP2 PUSH2 0x564 JUMP JUMPDEST DUP3 MSTORE POP POP JUMP JUMPDEST PUSH1 0x0 PUSH1 0x20 DUP3 ADD SWAP1 POP PUSH2 0x493 PUSH1 0x0 DUP4 ADD DUP5 PUSH2 0x3BA JUMP JUMPDEST SWAP3 SWAP2 POP POP JUMP JUMPDEST PUSH1 0x0 PUSH1 0x20 DUP3 ADD SWAP1 POP PUSH2 0x4AE PUSH1 0x0 DUP4 ADD DUP5 PUSH2 0x3AB JUMP JUMPDEST SWAP3 SWAP2 POP POP JUMP JUMPDEST PUSH1 0x0 PUSH1 0x20 DUP3 ADD SWAP1 POP DUP2 DUP2 SUB PUSH1 0x0 DUP4 ADD MSTORE PUSH2 0x4CD DUP2 PUSH2 0x3C9 JUMP JUMPDEST SWAP1 POP SWAP2 SWAP1 POP JUMP JUMPDEST PUSH1 0x0 PUSH1 0x20 DUP3 ADD SWAP1 POP DUP2 DUP2 SUB PUSH1 0x0 DUP4 ADD MSTORE PUSH2 0x4ED DUP2 PUSH2 0x409 JUMP JUMPDEST SWAP1 POP SWAP2 SWAP1 POP JUMP JUMPDEST PUSH1 0x0 PUSH1 0x20 DUP3 ADD SWAP1 POP PUSH2 0x509 PUSH1 0x0 DUP4 ADD DUP5 PUSH2 0x46F JUMP JUMPDEST SWAP3 SWAP2 POP POP JUMP JUMPDEST PUSH1 0x0 DUP3 DUP3 MSTORE PUSH1 0x20 DUP3 ADD SWAP1 POP SWAP3 SWAP2 POP POP JUMP JUMPDEST PUSH1 0x0 PUSH2 0x52B DUP3 PUSH2 0x544 JUMP JUMPDEST SWAP1 POP SWAP2 SWAP1 POP JUMP JUMPDEST PUSH1 0x0 PUSH2 0x53D DUP3 PUSH2 0x544 JUMP JUMPDEST SWAP1 POP SWAP2 SWAP1 POP JUMP JUMPDEST PUSH1 0x0 PUSH20 0xFFFFFFFFFFFFFFFFFFFFFFFFFFFFFFFFFFFFFFFF DUP3 AND SWAP1 POP SWAP2 SWAP1 POP JUMP JUMPDEST PUSH1 0x0 DUP2 SWAP1 POP SWAP2 SWAP1 POP JUMP JUMPDEST PUSH2 0x577 DUP2 PUSH2 0x520 JUMP JUMPDEST DUP2 EQ PUSH2 0x582 JUMPI PUSH1 0x0 DUP1 REVERT JUMPDEST POP JUMP JUMPDEST PUSH2 0x58E DUP2 PUSH2 0x532 JUMP JUMPDEST DUP2 EQ PUSH2 0x599 JUMPI PUSH1 0x0 DUP1 REVERT JUMPDEST POP JUMP JUMPDEST PUSH2 0x5A5 DUP2 PUSH2 0x564 JUMP JUMPDEST DUP2 EQ PUSH2 0x5B0 JUMPI PUSH1 0x0 DUP1 REVERT JUMPDEST POP JUMP INVALID LOG2 PUSH5 0x6970667358 0x22 SLT KECCAK256 0xA8 SWAP1 0xC9 PUSH13 0xDCF5538DE16E9716B85AC5518E JUMPDEST ADDRESS 0x27 0xED PUSH11 0xD2A4D1AD156E79AA1B1D64 PUSH20 0x6F6C634300080000330000000000000000000000 "
				},
				"gasEstimates": {
					"creation": {
						"codeDepositCost": "302600",
						"executionCost": "343",
						"totalCost": "302943"
					},
					"external": {
						"amount()": "1173",
						"buyer()": "1211",
						"confirmPurchase()": "infinite",
						"seller()": "1192",
						"setSellerDetails(address,uint256,address)": "infinite"
					}
				},
				"methodIdentifiers": {
					"amount()": "aa8c217c",
					"buyer()": "7150d8ae",
					"confirmPurchase()": "d6960697",
					"seller()": "08551a53",
					"setSellerDetails(address,uint256,address)": "898c3780"
				}
			},
			"storageLayout": {
				"storage": [
					{
						"astId": 3,
						"contract": "contracts/ShoppingMall.sol:ShoppingMall",
						"label": "buyer",
						"offset": 0,
						"slot": "0",
						"type": "t_address"
					},
					{
						"astId": 5,
						"contract": "contracts/ShoppingMall.sol:ShoppingMall",
						"label": "amount",
						"offset": 0,
						"slot": "1",
						"type": "t_uint256"
					},
					{
						"astId": 7,
						"contract": "contracts/ShoppingMall.sol:ShoppingMall",
						"label": "seller",
						"offset": 0,
						"slot": "2",
						"type": "t_address_payable"
					}
				],
				"types": {
					"t_address": {
						"encoding": "inplace",
						"label": "address",
						"numberOfBytes": "20"
					},
					"t_address_payable": {
						"encoding": "inplace",
						"label": "address payable",
						"numberOfBytes": "20"
					},
					"t_uint256": {
						"encoding": "inplace",
						"label": "uint256",
						"numberOfBytes": "32"
					}
				}
			},
			"userdoc": {
				"kind": "user",
				"methods": {},
				"version": 1
			}
		}
	}
}